{
  "_format": "hh-sol-artifact-1",
  "contractName": "Nonceblox",
  "sourceName": "Contracts/Nonceblox.sol",
  "abi": [
    {
      "inputs": [
        {
          "internalType": "int256",
          "name": "i",
          "type": "int256"
        },
        {
          "internalType": "int256",
          "name": "j",
          "type": "int256"
        }
      ],
      "name": "addition",
      "outputs": [
        {
          "internalType": "int256",
          "name": "",
          "type": "int256"
        }
      ],
      "stateMutability": "pure",
      "type": "function"
    },
    {
      "inputs": [
        {
          "internalType": "int256",
          "name": "i",
          "type": "int256"
        },
        {
          "internalType": "int256",
          "name": "j",
          "type": "int256"
        }
      ],
      "name": "division",
      "outputs": [
        {
          "internalType": "int256",
          "name": "",
          "type": "int256"
        }
      ],
      "stateMutability": "pure",
      "type": "function"
    },
    {
      "inputs": [
        {
          "internalType": "int256",
          "name": "i",
          "type": "int256"
        },
        {
          "internalType": "int256",
          "name": "j",
          "type": "int256"
        }
      ],
      "name": "multiplication",
      "outputs": [
        {
          "internalType": "int256",
          "name": "",
          "type": "int256"
        }
      ],
      "stateMutability": "pure",
      "type": "function"
    },
    {
      "inputs": [
        {
          "internalType": "int256",
          "name": "i",
          "type": "int256"
        },
        {
          "internalType": "int256",
          "name": "j",
          "type": "int256"
        }
      ],
      "name": "subtraction",
      "outputs": [
        {
          "internalType": "int256",
          "name": "",
          "type": "int256"
        }
      ],
      "stateMutability": "pure",
      "type": "function"
    }
  ],
  "bytecode": "0x608060405234801561001057600080fd5b50610554806100206000396000f3fe608060405234801561001057600080fd5b506004361061004c5760003560e01c806309b7cdda146100515780633b904fd914610081578063609e076f146100b1578063c2d85baf146100e1575b600080fd5b61006b60048036038101906100669190610190565b610111565b60405161007891906101db565b60405180910390f35b61009b60048036038101906100969190610190565b610139565b6040516100a891906101db565b60405180910390f35b6100cb60048036038101906100c69190610190565b61014f565b6040516100d891906101db565b60405180910390f35b6100fb60048036038101906100f69190610190565b610165565b60405161010891906101db565b60405180910390f35b6000808214156101245760009050610133565b8183610130919061028a565b90505b92915050565b6000818361014791906102f4565b905092915050565b6000818361015d919061040b565b905092915050565b6000818361017391906101f6565b905092915050565b60008135905061018a81610507565b92915050565b600080604083850312156101a357600080fd5b60006101b18582860161017b565b92505060206101c28582860161017b565b9150509250929050565b6101d58161049f565b82525050565b60006020820190506101f060008301846101cc565b92915050565b60006102018261049f565b915061020c8361049f565b9250817f7fffffffffffffffffffffffffffffffffffffffffffffffffffffffffffffff03831360008312151615610247576102466104a9565b5b817f800000000000000000000000000000000000000000000000000000000000000003831260008312161561027f5761027e6104a9565b5b828201905092915050565b60006102958261049f565b91506102a08361049f565b9250826102b0576102af6104d8565b5b600160000383147f8000000000000000000000000000000000000000000000000000000000000000831416156102e9576102e86104a9565b5b828205905092915050565b60006102ff8261049f565b915061030a8361049f565b9250827f7fffffffffffffffffffffffffffffffffffffffffffffffffffffffffffffff0482116000841360008413161615610349576103486104a9565b5b817f80000000000000000000000000000000000000000000000000000000000000000583126000841260008413161615610386576103856104a9565b5b827f800000000000000000000000000000000000000000000000000000000000000005821260008413600084121616156103c3576103c26104a9565b5b827f7fffffffffffffffffffffffffffffffffffffffffffffffffffffffffffffff0582126000841260008412161615610400576103ff6104a9565b5b828202905092915050565b60006104168261049f565b91506104218361049f565b9250827f80000000000000000000000000000000000000000000000000000000000000000182126000841215161561045c5761045b6104a9565b5b827f7fffffffffffffffffffffffffffffffffffffffffffffffffffffffffffffff018213600084121615610494576104936104a9565b5b828203905092915050565b6000819050919050565b7f4e487b7100000000000000000000000000000000000000000000000000000000600052601160045260246000fd5b7f4e487b7100000000000000000000000000000000000000000000000000000000600052601260045260246000fd5b6105108161049f565b811461051b57600080fd5b5056fea264697066735822122063ecaaf140a314dd6a7e9742af0f256640a4b42392c235df0059d701341277d064736f6c63430008030033",
  "linkReferences": {},
  "deployedLinkReferences": {}
}