{
  "Contracts/Nonceblox.sol": {
    "Nonceblox": {
      "abi": [
        {
          "inputs": [
            {
              "internalType": "int256",
              "name": "i",
              "type": "int256"
            },
            {
              "internalType": "int256",
              "name": "j",
              "type": "int256"
            }
          ],
          "name": "addition",
          "outputs": [
            {
              "internalType": "int256",
              "name": "",
              "type": "int256"
            }
          ],
          "stateMutability": "pure",
          "type": "function"
        },
        {
          "inputs": [
            {
              "internalType": "int256",
              "name": "i",
              "type": "int256"
            },
            {
              "internalType": "int256",
              "name": "j",
              "type": "int256"
            }
          ],
          "name": "division",
          "outputs": [
            {
              "internalType": "int256",
              "name": "",
              "type": "int256"
            }
          ],
          "stateMutability": "pure",
          "type": "function"
        },
        {
          "inputs": [
            {
              "internalType": "int256",
              "name": "i",
              "type": "int256"
            },
            {
              "internalType": "int256",
              "name": "j",
              "type": "int256"
            }
          ],
          "name": "multiplication",
          "outputs": [
            {
              "internalType": "int256",
              "name": "",
              "type": "int256"
            }
          ],
          "stateMutability": "pure",
          "type": "function"
        },
        {
          "inputs": [
            {
              "internalType": "int256",
              "name": "i",
              "type": "int256"
            },
            {
              "internalType": "int256",
              "name": "j",
              "type": "int256"
            }
          ],
          "name": "subtraction",
          "outputs": [
            {
              "internalType": "int256",
              "name": "",
              "type": "int256"
            }
          ],
          "stateMutability": "pure",
          "type": "function"
        }
      ],
      "evm": {
        "bytecode": {
          "linkReferences": {},
          "object": "608060405234801561001057600080fd5b50610554806100206000396000f3fe608060405234801561001057600080fd5b506004361061004c5760003560e01c806309b7cdda146100515780633b904fd914610081578063609e076f146100b1578063c2d85baf146100e1575b600080fd5b61006b60048036038101906100669190610190565b610111565b60405161007891906101db565b60405180910390f35b61009b60048036038101906100969190610190565b610139565b6040516100a891906101db565b60405180910390f35b6100cb60048036038101906100c69190610190565b61014f565b6040516100d891906101db565b60405180910390f35b6100fb60048036038101906100f69190610190565b610165565b60405161010891906101db565b60405180910390f35b6000808214156101245760009050610133565b8183610130919061028a565b90505b92915050565b6000818361014791906102f4565b905092915050565b6000818361015d919061040b565b905092915050565b6000818361017391906101f6565b905092915050565b60008135905061018a81610507565b92915050565b600080604083850312156101a357600080fd5b60006101b18582860161017b565b92505060206101c28582860161017b565b9150509250929050565b6101d58161049f565b82525050565b60006020820190506101f060008301846101cc565b92915050565b60006102018261049f565b915061020c8361049f565b9250817f7fffffffffffffffffffffffffffffffffffffffffffffffffffffffffffffff03831360008312151615610247576102466104a9565b5b817f800000000000000000000000000000000000000000000000000000000000000003831260008312161561027f5761027e6104a9565b5b828201905092915050565b60006102958261049f565b91506102a08361049f565b9250826102b0576102af6104d8565b5b600160000383147f8000000000000000000000000000000000000000000000000000000000000000831416156102e9576102e86104a9565b5b828205905092915050565b60006102ff8261049f565b915061030a8361049f565b9250827f7fffffffffffffffffffffffffffffffffffffffffffffffffffffffffffffff0482116000841360008413161615610349576103486104a9565b5b817f80000000000000000000000000000000000000000000000000000000000000000583126000841260008413161615610386576103856104a9565b5b827f800000000000000000000000000000000000000000000000000000000000000005821260008413600084121616156103c3576103c26104a9565b5b827f7fffffffffffffffffffffffffffffffffffffffffffffffffffffffffffffff0582126000841260008412161615610400576103ff6104a9565b5b828202905092915050565b60006104168261049f565b91506104218361049f565b9250827f80000000000000000000000000000000000000000000000000000000000000000182126000841215161561045c5761045b6104a9565b5b827f7fffffffffffffffffffffffffffffffffffffffffffffffffffffffffffffff018213600084121615610494576104936104a9565b5b828203905092915050565b6000819050919050565b7f4e487b7100000000000000000000000000000000000000000000000000000000600052601160045260246000fd5b7f4e487b7100000000000000000000000000000000000000000000000000000000600052601260045260246000fd5b6105108161049f565b811461051b57600080fd5b5056fea264697066735822122063ecaaf140a314dd6a7e9742af0f256640a4b42392c235df0059d701341277d064736f6c63430008030033",
          "opcodes": "PUSH1 0x80 PUSH1 0x40 MSTORE CALLVALUE DUP1 ISZERO PUSH2 0x10 JUMPI PUSH1 0x0 DUP1 REVERT JUMPDEST POP PUSH2 0x554 DUP1 PUSH2 0x20 PUSH1 0x0 CODECOPY PUSH1 0x0 RETURN INVALID PUSH1 0x80 PUSH1 0x40 MSTORE CALLVALUE DUP1 ISZERO PUSH2 0x10 JUMPI PUSH1 0x0 DUP1 REVERT JUMPDEST POP PUSH1 0x4 CALLDATASIZE LT PUSH2 0x4C JUMPI PUSH1 0x0 CALLDATALOAD PUSH1 0xE0 SHR DUP1 PUSH4 0x9B7CDDA EQ PUSH2 0x51 JUMPI DUP1 PUSH4 0x3B904FD9 EQ PUSH2 0x81 JUMPI DUP1 PUSH4 0x609E076F EQ PUSH2 0xB1 JUMPI DUP1 PUSH4 0xC2D85BAF EQ PUSH2 0xE1 JUMPI JUMPDEST PUSH1 0x0 DUP1 REVERT JUMPDEST PUSH2 0x6B PUSH1 0x4 DUP1 CALLDATASIZE SUB DUP2 ADD SWAP1 PUSH2 0x66 SWAP2 SWAP1 PUSH2 0x190 JUMP JUMPDEST PUSH2 0x111 JUMP JUMPDEST PUSH1 0x40 MLOAD PUSH2 0x78 SWAP2 SWAP1 PUSH2 0x1DB JUMP JUMPDEST PUSH1 0x40 MLOAD DUP1 SWAP2 SUB SWAP1 RETURN JUMPDEST PUSH2 0x9B PUSH1 0x4 DUP1 CALLDATASIZE SUB DUP2 ADD SWAP1 PUSH2 0x96 SWAP2 SWAP1 PUSH2 0x190 JUMP JUMPDEST PUSH2 0x139 JUMP JUMPDEST PUSH1 0x40 MLOAD PUSH2 0xA8 SWAP2 SWAP1 PUSH2 0x1DB JUMP JUMPDEST PUSH1 0x40 MLOAD DUP1 SWAP2 SUB SWAP1 RETURN JUMPDEST PUSH2 0xCB PUSH1 0x4 DUP1 CALLDATASIZE SUB DUP2 ADD SWAP1 PUSH2 0xC6 SWAP2 SWAP1 PUSH2 0x190 JUMP JUMPDEST PUSH2 0x14F JUMP JUMPDEST PUSH1 0x40 MLOAD PUSH2 0xD8 SWAP2 SWAP1 PUSH2 0x1DB JUMP JUMPDEST PUSH1 0x40 MLOAD DUP1 SWAP2 SUB SWAP1 RETURN JUMPDEST PUSH2 0xFB PUSH1 0x4 DUP1 CALLDATASIZE SUB DUP2 ADD SWAP1 PUSH2 0xF6 SWAP2 SWAP1 PUSH2 0x190 JUMP JUMPDEST PUSH2 0x165 JUMP JUMPDEST PUSH1 0x40 MLOAD PUSH2 0x108 SWAP2 SWAP1 PUSH2 0x1DB JUMP JUMPDEST PUSH1 0x40 MLOAD DUP1 SWAP2 SUB SWAP1 RETURN JUMPDEST PUSH1 0x0 DUP1 DUP3 EQ ISZERO PUSH2 0x124 JUMPI PUSH1 0x0 SWAP1 POP PUSH2 0x133 JUMP JUMPDEST DUP2 DUP4 PUSH2 0x130 SWAP2 SWAP1 PUSH2 0x28A JUMP JUMPDEST SWAP1 POP JUMPDEST SWAP3 SWAP2 POP POP JUMP JUMPDEST PUSH1 0x0 DUP2 DUP4 PUSH2 0x147 SWAP2 SWAP1 PUSH2 0x2F4 JUMP JUMPDEST SWAP1 POP SWAP3 SWAP2 POP POP JUMP JUMPDEST PUSH1 0x0 DUP2 DUP4 PUSH2 0x15D SWAP2 SWAP1 PUSH2 0x40B JUMP JUMPDEST SWAP1 POP SWAP3 SWAP2 POP POP JUMP JUMPDEST PUSH1 0x0 DUP2 DUP4 PUSH2 0x173 SWAP2 SWAP1 PUSH2 0x1F6 JUMP JUMPDEST SWAP1 POP SWAP3 SWAP2 POP POP JUMP JUMPDEST PUSH1 0x0 DUP2 CALLDATALOAD SWAP1 POP PUSH2 0x18A DUP2 PUSH2 0x507 JUMP JUMPDEST SWAP3 SWAP2 POP POP JUMP JUMPDEST PUSH1 0x0 DUP1 PUSH1 0x40 DUP4 DUP6 SUB SLT ISZERO PUSH2 0x1A3 JUMPI PUSH1 0x0 DUP1 REVERT JUMPDEST PUSH1 0x0 PUSH2 0x1B1 DUP6 DUP3 DUP7 ADD PUSH2 0x17B JUMP JUMPDEST SWAP3 POP POP PUSH1 0x20 PUSH2 0x1C2 DUP6 DUP3 DUP7 ADD PUSH2 0x17B JUMP JUMPDEST SWAP2 POP POP SWAP3 POP SWAP3 SWAP1 POP JUMP JUMPDEST PUSH2 0x1D5 DUP2 PUSH2 0x49F JUMP JUMPDEST DUP3 MSTORE POP POP JUMP JUMPDEST PUSH1 0x0 PUSH1 0x20 DUP3 ADD SWAP1 POP PUSH2 0x1F0 PUSH1 0x0 DUP4 ADD DUP5 PUSH2 0x1CC JUMP JUMPDEST SWAP3 SWAP2 POP POP JUMP JUMPDEST PUSH1 0x0 PUSH2 0x201 DUP3 PUSH2 0x49F JUMP JUMPDEST SWAP2 POP PUSH2 0x20C DUP4 PUSH2 0x49F JUMP JUMPDEST SWAP3 POP DUP2 PUSH32 0x7FFFFFFFFFFFFFFFFFFFFFFFFFFFFFFFFFFFFFFFFFFFFFFFFFFFFFFFFFFFFFFF SUB DUP4 SGT PUSH1 0x0 DUP4 SLT ISZERO AND ISZERO PUSH2 0x247 JUMPI PUSH2 0x246 PUSH2 0x4A9 JUMP JUMPDEST JUMPDEST DUP2 PUSH32 0x8000000000000000000000000000000000000000000000000000000000000000 SUB DUP4 SLT PUSH1 0x0 DUP4 SLT AND ISZERO PUSH2 0x27F JUMPI PUSH2 0x27E PUSH2 0x4A9 JUMP JUMPDEST JUMPDEST DUP3 DUP3 ADD SWAP1 POP SWAP3 SWAP2 POP POP JUMP JUMPDEST PUSH1 0x0 PUSH2 0x295 DUP3 PUSH2 0x49F JUMP JUMPDEST SWAP2 POP PUSH2 0x2A0 DUP4 PUSH2 0x49F JUMP JUMPDEST SWAP3 POP DUP3 PUSH2 0x2B0 JUMPI PUSH2 0x2AF PUSH2 0x4D8 JUMP JUMPDEST JUMPDEST PUSH1 0x1 PUSH1 0x0 SUB DUP4 EQ PUSH32 0x8000000000000000000000000000000000000000000000000000000000000000 DUP4 EQ AND ISZERO PUSH2 0x2E9 JUMPI PUSH2 0x2E8 PUSH2 0x4A9 JUMP JUMPDEST JUMPDEST DUP3 DUP3 SDIV SWAP1 POP SWAP3 SWAP2 POP POP JUMP JUMPDEST PUSH1 0x0 PUSH2 0x2FF DUP3 PUSH2 0x49F JUMP JUMPDEST SWAP2 POP PUSH2 0x30A DUP4 PUSH2 0x49F JUMP JUMPDEST SWAP3 POP DUP3 PUSH32 0x7FFFFFFFFFFFFFFFFFFFFFFFFFFFFFFFFFFFFFFFFFFFFFFFFFFFFFFFFFFFFFFF DIV DUP3 GT PUSH1 0x0 DUP5 SGT PUSH1 0x0 DUP5 SGT AND AND ISZERO PUSH2 0x349 JUMPI PUSH2 0x348 PUSH2 0x4A9 JUMP JUMPDEST JUMPDEST DUP2 PUSH32 0x8000000000000000000000000000000000000000000000000000000000000000 SDIV DUP4 SLT PUSH1 0x0 DUP5 SLT PUSH1 0x0 DUP5 SGT AND AND ISZERO PUSH2 0x386 JUMPI PUSH2 0x385 PUSH2 0x4A9 JUMP JUMPDEST JUMPDEST DUP3 PUSH32 0x8000000000000000000000000000000000000000000000000000000000000000 SDIV DUP3 SLT PUSH1 0x0 DUP5 SGT PUSH1 0x0 DUP5 SLT AND AND ISZERO PUSH2 0x3C3 JUMPI PUSH2 0x3C2 PUSH2 0x4A9 JUMP JUMPDEST JUMPDEST DUP3 PUSH32 0x7FFFFFFFFFFFFFFFFFFFFFFFFFFFFFFFFFFFFFFFFFFFFFFFFFFFFFFFFFFFFFFF SDIV DUP3 SLT PUSH1 0x0 DUP5 SLT PUSH1 0x0 DUP5 SLT AND AND ISZERO PUSH2 0x400 JUMPI PUSH2 0x3FF PUSH2 0x4A9 JUMP JUMPDEST JUMPDEST DUP3 DUP3 MUL SWAP1 POP SWAP3 SWAP2 POP POP JUMP JUMPDEST PUSH1 0x0 PUSH2 0x416 DUP3 PUSH2 0x49F JUMP JUMPDEST SWAP2 POP PUSH2 0x421 DUP4 PUSH2 0x49F JUMP JUMPDEST SWAP3 POP DUP3 PUSH32 0x8000000000000000000000000000000000000000000000000000000000000000 ADD DUP3 SLT PUSH1 0x0 DUP5 SLT ISZERO AND ISZERO PUSH2 0x45C JUMPI PUSH2 0x45B PUSH2 0x4A9 JUMP JUMPDEST JUMPDEST DUP3 PUSH32 0x7FFFFFFFFFFFFFFFFFFFFFFFFFFFFFFFFFFFFFFFFFFFFFFFFFFFFFFFFFFFFFFF ADD DUP3 SGT PUSH1 0x0 DUP5 SLT AND ISZERO PUSH2 0x494 JUMPI PUSH2 0x493 PUSH2 0x4A9 JUMP JUMPDEST JUMPDEST DUP3 DUP3 SUB SWAP1 POP SWAP3 SWAP2 POP POP JUMP JUMPDEST PUSH1 0x0 DUP2 SWAP1 POP SWAP2 SWAP1 POP JUMP JUMPDEST PUSH32 0x4E487B7100000000000000000000000000000000000000000000000000000000 PUSH1 0x0 MSTORE PUSH1 0x11 PUSH1 0x4 MSTORE PUSH1 0x24 PUSH1 0x0 REVERT JUMPDEST PUSH32 0x4E487B7100000000000000000000000000000000000000000000000000000000 PUSH1 0x0 MSTORE PUSH1 0x12 PUSH1 0x4 MSTORE PUSH1 0x24 PUSH1 0x0 REVERT JUMPDEST PUSH2 0x510 DUP2 PUSH2 0x49F JUMP JUMPDEST DUP2 EQ PUSH2 0x51B JUMPI PUSH1 0x0 DUP1 REVERT JUMPDEST POP JUMP INVALID LOG2 PUSH5 0x6970667358 0x22 SLT KECCAK256 PUSH4 0xECAAF140 LOG3 EQ 0xDD PUSH11 0x7E9742AF0F256640A4B423 SWAP3 0xC2 CALLDATALOAD 0xDF STOP MSIZE 0xD7 ADD CALLVALUE SLT PUSH24 0xD064736F6C63430008030033000000000000000000000000 "
        },
        "methodIdentifiers": {
          "addition(int256,int256)": "c2d85baf",
          "division(int256,int256)": "09b7cdda",
          "multiplication(int256,int256)": "3b904fd9",
          "subtraction(int256,int256)": "609e076f"
        }
      }
    }
  }
}